:020000040000FA
:04000000FEEFFFF020
:020000040001F9
:10FF4C0012001200120001EE01F1110EEE6AE80629
:10FF5C00FDE10001CFEFFFF0000E0401006F3F0E3A
:10FF6C00BE6E000EC66EC768000E086FCE8E1200F5
:10FF7C00000E0D6E000E0E6E000E0F6E000E106E4B
:10FF8C00000E096E000E0A6E000E0B6E000E0C6E4B
:10FF9C001200088EA6ECFFF0BEECFFF0B2ECFFF006
:10FFAC00A8ECFFF0E0ECFFF0A7ECFFF0D8EFFFF0CF
:10FFBC00FEEFFFF0CFAAE5EFFFF0E7EFFFF0FDEF6C
:10FFCC00FFF0010E016E000E026E000E036E000EAD
:10FFDC00046EBE50010ABE6E060E136E130E126E28
:10FFEC00AE0EE82EFED7122EFCD7132EFAD7120027
:04FFFC00A9EFFFF07A
:020000040020DA
:10000000FF0FFF0FFF0FFF0FFF0FFF0FFF0FFF0F80
:10001000FF0FFF0FFF0FFF0FFF0FFF0FFF0FFF0F70
:020000040030CA
:0A0000008CFEFFFC9FFFFFFFFFFFD7
:00000001FF
