:020000040000FA
:04000000FEEFFFF020
:020000040001F9
:10FED40012001200010410020820000ECE6E000E63
:10FEE4000401006F000EC66E1200800EBE6E900EEE
:10FEF40003011A6F540E1B6F120003011A9F165050
:10FF0400196F610054F418F3B19E1A8F1200000E99
:10FF1400096E000E0A6E000E0B6E000E0C6E000EC3
:10FF2400056E000E066E000E076E000E086E1200BF
:10FF3400D80EF66EFE0EF76E010EF86E01EE0FF19E
:10FF440010EE06F00900F5C4EEF4E550E150FAE1D4
:10FF540001EE01F10E0EEE6AE806FDE10001B3EFD9
:10FF6400FFF0048E6AECFFF089ECFFF06FECFFF019
:10FF740077ECFFF0D5ECFFF0BE9E6BECFFF0030EC8
:10FF8400166EE80E156E7FECFFF0800EB118D8A443
:10FF9400CEEFFFF0D0EFFFF0C7EFFFF0BE8EBCEF67
:10FFA400FFF0FEEFFFF021EE0FF111EE15F1050E5B
:10FFB400DBC4E3F4E806FCE2000E0D6E150E0D241E
:10FFC400D96EDA6A050EDA22DF50BE6E0D2A060EED
:10FFD4000D18D8A4F0EFFFF0F2EFFFF0F4EFFFF00C
:10FFE400000E0D6E0D2A050E0D64FBEFFFF0FDEF04
:0CFFF400FFF0E0EFFFF012009AEFFFF0CA
:020000040020DA
:10000000FF0FFF0FFF0FFF0FFF0FFF0FFF0FFF0F80
:10001000FF0FFF0FFF0FFF0FFF0FFF0FFF0FFF0F70
:020000040030CA
:0A0000008CFEFFFC9FFFFFFFFFFFD7
:00000001FF
