:020000040000FA
:04000000FEEFFFF020
:020000040001F9
:10FF5C00120012001200000ECE6E000E0401006F93
:10FF6C00000EC66ECE8E120001EE01F10D0EEE6A81
:10FF7C00E806FDE10001D4EFFFF0000E096E000E63
:10FF8C000A6E000E0B6E000E0C6E000E056E000E4F
:10FF9C00066E000E076E000E086E1200048EAEEC9C
:10FFAC00FFF0C3ECFFF0B1ECFFF0B0ECFFF0E5ECD0
:10FFBC00FFF0AFECFFF0DDEFFFF0FEEFFFF0000E17
:10FFCC00106EBE2A150E0F6E4B0E0E6EBE0EE82E68
:10FFDC00FED70E2EFCD70F2EFAD700D0102A3E0ECD
:10FFEC001064FBEFFFF0FDEFFFF0E7EFFFF0120006
:04FFFC00BAEFFFF069
:020000040020DA
:10000000FF0FFF0FFF0FFF0FFF0FFF0FFF0FFF0F80
:10001000FF0FFF0FFF0FFF0FFF0FFF0FFF0FFF0F70
:020000040030CA
:0A0000008CFEFFFC9FFFFFFFFFFFD7
:00000001FF
